:020000040800F2
:10000000980A0020DD010008472B0008312700086E
:10001000452B0008450700083132000800000000A9
:10002000000000000000000000000000672C000835
:100030005507000800000000652C0008252E000868
:10004000F7010008F7010008F7010008F7010008B0
:10005000F7010008F7010008F7010008F7010008A0
:10006000F7010008F70100085707000849070008D2
:10007000F7010008F7010008F7010008F701000880
:10008000F7010008F7010008F7010008F701000870
:10009000F7010008F7010008F7010008F701000860
:1000A000F7010008F7010008F7010008F701000850
:1000B000A52E0008F7010008F7010008F701000865
:1000C000F7010008F7010008F7010008F701000830
:1000D000F70100080D320008193200082532000827
:1000E000F7010008F7010008F7010008F701000810
:1000F000F7010008F7010008F7010008F701000800
:10010000F7010008F7010008F7010008F7010008EF
:10011000A92F0008B52F0008F7010008F701000813
:10012000F7010008F7010008F7010008F7010008CF
:1001300000F002F800F042F80AA090E8000C8244B7
:100140008344AAF10107DA4501D100F037F8AFF294
:10015000090EBAE80F0013F0010F18BFFB1A43F0A5
:10016000010318472C4F00004C4F0000103A24BFE9
:1001700078C878C1FAD8520724BF30C830C144BF0C
:1001800004680C607047000000230024002500264E
:10019000103A28BF78C1FBD8520728BF30C148BFEA
:1001A0000B607047642900F0B980732900F0F18179
:1001B000002070471FB51FBD10B510BD00F00CFA30
:1001C0001146FFF7F7FF03F0DBF800F02AFA03B45B
:1001D000FFF7F2FF03BC03F0C5F8000009488047B1
:1001E00009480047FEE7FEE7FEE7FEE7FEE7FEE719
:1001F000FEE7FEE7FEE7FEE704480549054A064B31
:1002000070470000A32E0008310100089804002068
:10021000980A0020980600209806002070470000E9
:100220000FB4044910B503AA029800F0B7F910BC46
:100230005DF814FBE80000200FB41CB5074B06AABC
:100240007B4469460090059800F079F900206946E2
:1002500000F088F91CBC5DF814FB000021030000CD
:100260002DE9F0410E460446002020622046E16858
:10027000884730B3252805D0D4E901219047206A6A
:10028000401CF2E7E168204600278847050018D0A7
:10029000A5F14100192802D820354FF400673246F5
:1002A000294620462760FFF77DFF40B1012804D092
:1002B000F61D26F007060836D8E7361DD6E728468D
:1002C000DAE7206ABDE8F08170B50C460546012AE0
:1002D00005D02878800600D5EA69002302E00123D2
:1002E00005E05B1C934202D2E05C0028F9D1A869CA
:1002F000E618C01AA861286A184428622846AFF395
:10030000008004E0D5E9012114F8010B9047B442C4
:10031000F8D32846AFF3008070BD00002DE9F0410E
:100320000646002410687529314616A510D0AFF393
:100330000080002802DA404213A507E031688A07EE
:1003400001D512A502E0490704D511A5012401E059
:10035000AFF3008000210A2206F1240709E0B0FB78
:10036000F2FCB0FBF2F302FB1C003030785418466C
:10037000491C0028F3D123462A463046BDE8F04107
:1003800000F07FB8000000002D0000002B000000EE
:100390002000000010B5431C02E010F8011B71B1F1
:1003A0008107FAD14FF0013202C88C1A8C4314EA4B
:1003B000C211F9D0C01A0A0603D0C01E10BDC01A5F
:1003C00010BD0A0401D0801E10BD0902FCD0401EE1
:1003D00010BD4FF000020429C0F0128010F0030C91
:1003E00000F01B80CCF1040CBCF1020F18BF00F828
:1003F000012BA8BF20F8022BA1EB0C0100F00DB8D7
:100400005FEAC17C24BF00F8012B00F8012B48BF34
:1004100000F8012B70474FF0000200B513469446D8
:100420009646203922BFA0E80C50A0E80C50B1F14C
:100430002001BFF4F7AF090728BFA0E80C5048BF60
:100440000CC05DF804EB890028BF40F8042B08BFFE
:10045000704748BF20F8022B11F0804F18BF00F8FA
:10046000012B7047704770477047704710B500F018
:10047000A7F8006810BD10B5044600F0A1F80460AC
:1004800010BD2DE9F0470D4699469246044600F10D
:1004900024080168880604D5E06921F01001216074
:1004A00000E00120A84201DD471B00E00027A16910
:1004B0007A1902EB0900081AA0612078C00602D45C
:1004C0002046AFF30080002608E0D4E901211AF8A5
:1004D00006009047206A401C761C20624E45F4DBE3
:1004E0002078C0060AD52046AFF3008006E0D4E9A4
:1004F000012130209047206A401C2062381EA7F15D
:100500000107F4DC07E0D4E9012118F80500904761
:10051000206A401C2062281EA5F10105F3DC20465C
:10052000AFF300802078000602D50220BDE8F087F6
:100530000120FBE701694A1C02610878704700B599
:100540008FB0CDE901310021059105497944CDE90C
:10055000031011466846FFF783FE0FB000BD000090
:10056000E5FFFFFF0A6802F8010B0A60704710B54B
:10057000436913B1AFF3008001E0FFF7A5FE01204E
:1005800010BD127800F124010A7000224A70012285
:10059000EDE711684FF0FF32E9E70000074B70B557
:1005A0000D467B44FFF7CBFF0446284600F00CF8CD
:1005B00010B14FF0FF3070BD204670BDC32D00005C
:1005C0000048704738040020007B00F0800070472E
:1005D00000487047380400207546FFF7F9FFAE4623
:1005E00005006946534620F00700854618B020B53F
:1005F000FFF702FEBDE820404FF000064FF0000775
:100600004FF000084FF0000B21F00701AC46ACE8BA
:10061000C009ACE8C009ACE8C009ACE8C0098D4627
:1006200070470446AFF300802046FFF7D0FD00007E
:1006300070B5044600688168C943C90717D181684D
:1006400021F00101816000F063FE05460AE000BF71
:1006500000F05EFE401B022804D920688068C04379
:10066000C00706D020688068C043C007F0D00020D3
:1006700070BDA06A40F01000A062E06A40F0010086
:10068000E062012070BD0000F8B500260446009627
:1006900000688168C943C9072DD0816841F0010114
:1006A0008160164816490068B0FBF1F000E0401E7A
:1006B00000900028FBD100F02BFE054616E000BF9D
:1006C00000F026FE401B022810D920688068C04335
:1006D000C0070BD0A06A40F01000A062E06A40F0B2
:1006E0000100E06284F824600120F8BD2068806881
:1006F000C043C007E4D10020F8BD0000F80000208E
:1007000040420F002DE9F04100250E4607462C46D9
:100710000D60FFF73FFE014630200FE03055641CAE
:1007200030557A5D641C00EB121232557A5D641C00
:1007300002F00F0230323255641C6D1C8D42EDDB2D
:10074000BDE8F081FEE70000014800F03DBB00007D
:10075000800100207047102000F0C4BC72B6FEE794
:10076000F8B50024009490F824202546012A12D0E0
:10077000012280F824204A681F23072A0DD2066828
:10078000776B521E02EB820293409F430B689340AB
:100790001F43776319E00220F8BD06680D2A0AD2CC
:1007A000376BD21F02EB820293409F430B6893404A
:1007B0001F43376309E0F76A0D3A02EB8202934068
:1007C0009F430B6893401F43F7620A68072306683C
:1007D0000A2A0AD3F7680A3A02EB420293409F437F
:1007E0008B6893401F43F76008E0376902EB4202D1
:1007F00093409F438B6893401F4337610A68102AD8
:1008000001D0112A20D1124B02689A4217D1936865
:100810001B0219D4936843F40003936009681029FC
:1008200012D10C490C4A0968B1FBF2F101EB8101CC
:10083000490000E0491E00910029FBD104E0816AD3
:1008400041F020018162012480F824502046F8BD47
:1008500000240140F800002040420F00806A7047E9
:100860000068C06C704700002DE9F04104004FF0B3
:10087000000514D0A06A002628B9E66284F8246036
:10088000204600F083F82046FFF7D2FEA16A01F06F
:100890001001014304D0A06A40F01000A0626BE098
:1008A000A16A21F4885141F00201A1623349236811
:1008B0008B42E16904D1B1F5402F01D14FF4002101
:1008C000277B4FF4807C41EA470261680A43A168B4
:1008D000614509D0012907D05FF0000194F814E0C8
:1008E000BEF1010F02D00AE06146F7E7C7B1A76A7F
:1008F00047F02007A762E76A47F00107E7625F68F1
:1009000027F469470F435F60236899681C4F39409B
:1009100011439960A16861450BD0012909D00CE011
:10092000DFF860E0A7690EEB47370F4347F400613B
:10093000E5E7218A0D05A5F580152168CB6A23F42A
:1009400070032B43CB62216889680F4B1940914299
:1009500008D1E662A16A21F0020141F00101A16221
:10096000BDE8F081A06A20F0020040F01000A06213
:10097000E06A40F00100E0620120F1E7003C014044
:10098000FDF7E1FF00E0FFFFFE0E1FFF70B586B030
:10099000002500950195029503950646274C0268AF
:1009A00027490320274BA2422DD18A6942F40072C5
:1009B0008A618A6902F4007204928A6942F0040230
:1009C0008A61896901F0040104910221CDE90010D6
:1009D0006946184600F092FB1C4C1B48C4E9000510
:1009E0008020C4E90250400020618000C4E9050570
:1009F0002046E56100F00CFB08B1FFF7AFFE346262
:100A0000666206B070BD124CA242FAD18A6942F405
:100A100080628A618A6902F4806204928A6942F083
:100A200004028A61896901F0040104912021CDE961
:100A300000106946184600F061FBE2E7002401401F
:100A40000010024000080140080002408001002020
:100A5000002801402DE9F84300270D460446009781
:100A600000F056FC804620688168C90508D5A06A58
:100A700040F02000A06284F824700120BDE8F883D3
:100A80004168C90503D4C06A10F4700F2AD002204F
:100A900000F0D0FD3B490968B1FBF0F6206803691E
:100AA00039490B424FEA61014FEAA1121FD1C368D5
:100AB0004FEA611C13EA0C0F19D103690B4225D1CF
:100AC000C068104222D1142023E0681C0AD02DB146
:100AD00000F01EFCA0EB0800A84203D920680068C3
:100AE000800725D5206800688007EED52DE00369D2
:100AF0000B4202D1C168114206D0026923490A4261
:100B000006D1C068084203D1542002E0292000E049
:100B1000FC204643009816E0681C11D02DB100F06F
:100B2000F7FBA0EB0800A8420AD90098B04207D210
:100B3000A06A40F00400A06284F8247003209DE7BE
:100B40000098401C0090B042E6D321686FF012007C
:100B50000860A06A40F40070A06220688068C0F35A
:100B6000424007280CD1207B50B9A06A20F4807045
:100B7000A062A06AC00403D4A06A40F00100A06291
:100B800000207BE7F80000202449922449922400A9
:100B900070B5044690F8240001280DD0012084F897
:100BA00024002046FFF770FD02004FF0000005D042
:100BB00084F82400104670BD022070BDA16A40F286
:100BC0000123994341F48071A1621F4D23681F499D
:100BD000AB4218D10E6816F4702F14D0A66A46F4F2
:100BE0008016A6620E68760505D5A66A26F400561C
:100BF00046F48056A662A66AF6040AD5E66A26F08E
:100C00000606E66206E0A66A26F48016A6625E681C
:100C1000E9E7E06284F824006FF0020018602068C1
:100C20008368C3F34243072B05D1A84208D1096862
:100C300011F4702F04D0816841F480118160B9E70C
:100C4000816841F4A001F9E7002801400424014033
:100C500010B590F821100022022905D004218163EB
:100C600080F82020012010BD01680B6823F00E03DE
:100C70000B6001680B6823F001030B6090F84030B3
:100C8000C46B012101FA03F3636080F8211080F83E
:100C90002020104610BD00002DE9F05F90F82110D3
:100CA0000024022903D004218163012485E0016826
:100CB0000A6822F00E020A6001680A6822F0010246
:100CC0000A603F4E3E4FB215DFF8F4C0DFF8F090F7
:100CD000DFF8ECA0DFF8E8B0DFF8E4E00168783F87
:100CE00013011502ACF1640CA9F15009AAF13C0AF8
:100CF000ABF1280BAEF1140E4FF48018B14227D996
:100D0000B9420ED0614512D049451DD0514518D089
:100D1000594518D0714501D1424615E0294EB142DE
:100D200001D1012210E0274E1436B14201D1102228
:100D30000AE0244E2836B14206D0224A3C32914283
:100D400001D11A4600E02A461E49091F0A602BE01D
:100D5000B94213D0614517D0494522D051451DD025
:100D600059451DD0714501D142461AE0B14202D128
:100D70004FF0807215E0134EB14201D1012210E014
:100D8000104E1436B14201D110220AE00D4E283621
:100D9000B14206D00B4A3C32914201D11A4600E0E2
:100DA0002A46074980394A60012180F82110002134
:100DB00080F82010416B01B188472046BDE8F09FC4
:100DC00080000240080402402DE9F05FC16B0A6810
:100DD00001680B68046C4FF0040808FA04F8844DAD
:100DE000844E854FDFF814C2DFF81492DFF814A2A6
:100DF000DFF814B2DFF814E218EA020F65D05FEAF8
:100E0000437862D50A68920603D40A6822F0040285
:100E10000A60DFF8F0814FF48062016808F114087D
:100E200013011402414524D9A9420DD0B1420FD07B
:100E3000B9421AD0614515D0494515D0514501D167
:100E4000120312E0594501D104220EE0714501D18F
:100E500040220AE06D4D1435A94206D06B4A283273
:100E6000914201D11A4600E022466749091F0A60F3
:100E700029E0A94213D0B14215D0B94220D0614532
:100E80001BD049451BD0514502D14FF4800217E0D9
:100E9000414502D14FF0806212E0594501D1042250
:100EA0000EE0714501D140220AE0584D1435A942A7
:100EB00006D0564A2832914201D11A4600E0224615
:100EC0004B4908394A60C16A71E04FF0020808FADC
:100ED00004F818EA020F70D05FEA83786DD50A68CB
:100EE000920606D40A6822F00A020A60012180F8FC
:100EF0002110DFF810814FF40072016808F1140826
:100F000013011402414524D9A9420DD0B1420FD09A
:100F1000B9421AD0614515D0494515D0514501D186
:100F2000120312E0594501D102220EE0714501D1B0
:100F300020220AE0354D1435A94206D0334A283222
:100F4000914201D11A4600E022462F49091F0A604A
:100F500029E0A94213D0B14215D0B94220D0614551
:100F60001BD049451BD0514502D14FF4001217E068
:100F7000414502D14FF0007212E0594501D10222E1
:100F80000EE0714501D120220AE0204D1435A9421E
:100F900006D01E4A2832914201D11A4600E022466C
:100FA000134908394A60002180F82010816A00291D
:100FB0001CD0BDE8F05F0847FFE70825A5401542B3
:100FC00014D01A0712D50A6822F00E020A6090F8AF
:100FD0004020C36B012101FA02F25A60816380F85C
:100FE0002110002180F82010016BE0E7BDE8F09FA0
:100FF000080002401C000240300002404400024051
:10100000580002406C000240080402401C040240E8
:1010100030B560B11A4B026814219A4209D2194BBB
:101020001344B3FBF1F18900016417490AE0012080
:1010300030BD134B5B421344B3FBF1F189000164F3
:101040000F490839C163022180F82110136843F663
:10105000F0718B43F0E901142143D0E902452C43A0
:10106000214304692143446921438469214319438D
:10107000116000214163012242770177084630BDAB
:1010800008040240F8FFFDBF0000024070B50446AE
:1010900000F03EF90546601C02D004480078044484
:1010A00000F036F9401BA042FAD370BDEC000020DE
:1010B00010B50A4B0A4C012808D0102805D1202170
:1010C000184600F017F90020A07010BD0022202162
:1010D000184600F017F90120F6E70000000C014067
:1010E00000000020044910B50A68024202D00860DE
:1010F000FFF7DEFF10BD0000140401402DE9F84F9A
:10110000DFF8C891002409F1040A0AF1040B234610
:101110000F270BF1040ED1E00125A54006EA0502D8
:10112000AA4276D1DFF8A8C14E68A6EB0C08664546
:101130002BD00DDC032E34D005DC36B3012E19D0B4
:10114000022E2FD11BE0112E16D0122E2AD119E01B
:10115000B8F5881F19D006DCB8F5803F15D0B8F572
:10116000801F1FD111E0B8F5001F0ED0B8F5041F85
:1011700018D10AE0CB6815E0CB681B1D12E0CB68E4
:1011800008330FE0CB680C330CE08B682BB1012BDC
:101190004FF0080303D0456104E0042302E0056139
:1011A00000E00023FF2A01D8064601E000F1040612
:1011B0004FEA840501D9A5F12005D6F8008007FA89
:1011C00005FC28EA0C0803FA05F548EA0508C6F804
:1011D00000804D68ED0070D53E4DAE6946F00106C9
:1011E000AE61AD6924F0030605F0010500953A4DA6
:1011F00006EB050CDCF80850A607360F07FA06F8D0
:1012000025EA0805DFF8D480404503D14FF00008F7
:1012100025E052E0DFF8C880404502D14FF00108D8
:101220001DE0DFF8C080404502D14FF0020816E013
:10123000DFF8B480404502D14FF003080FE0DFF83B
:10124000AC80404502D14FF0040808E0DFF8A080F0
:10125000404502D14FF0050801E04FF0060808FABA
:1012600006F848EA0508CCF808804D68D9F800600F
:10127000ED034D4601D5164300E096432E604D68C0
:10128000DAF80060AD03554601D5164300E09643F9
:101290002E604D68DBF80060ED025D4601D5164317
:1012A00000E096432E604D68DEF80060AD027546A2
:1012B00001D5164300E096432E60641C0A6816466A
:1012C000E2407FF429AFBDE8F88F00000004014040
:1012D0000000111000100240000001400008014011
:1012E000000C0140001001400014014000180140B2
:1012F000001C0140C26821EA02030A4043EA02419D
:10130000016170470AB1016170470904FBE7000001
:101310000148806870470000EC00002070B50400B0
:1013200025D094F83D00002520B984F83C50204693
:1013300000F0B8F8242084F83D002068016821F00E
:10134000010101602068016841F4004101602068EA
:10135000016821F40041016000F0E2FA4D4A616841
:10136000914201D84C4900E04C49884201D2012009
:1013700070BD4B492368B0FBF1F15E6826F03F0673
:101380000E435E606368934206D94FF496735943E7
:101390004FF47A73B1FBF3F12368491C1E6A26F0FF
:1013A0003F06314319626168914210D84900401EDE
:1013B000B0FBF1F2521CC2F30B02042A01D204204A
:1013C00022E0B0FBF1F0401CC0F30B001CE0A2686F
:1013D000F2B301EBC10303EB0116431EB3FBF6F3BB
:1013E0005B1C43F480431B0549D092B301EBC1025F
:1013F00002EB0111401EB0FBF1F0401CC0F30B00EA
:1014000040F4804040F400402168CA694CF6FF7304
:101410009A431043C861D4E9071001432068026869
:1014200022F0C00211430160D4E9030101432068A6
:10143000826848F2FF339A4311438160D4E9050181
:1014400008432168CA6822F0FF021043C86001E027
:101450000EE016E02068016841F00101016025649A
:10146000202084F83D00256384F83E50002070BDA4
:1014700001EB4106431EB3FBF6F35B1CB3E701200F
:10148000C2E701EB4101401EB0FBF1F0401CC0F38C
:101490000B00B7E7A086010080841E0000093D0014
:1014A00040420F0010B586B00021009101910291D9
:1014B00003910068104988421BD1104CA06940F08C
:1014C0000800A061A069694600F0080004904FF48C
:1014D0004060009012200190032003900848FFF71D
:1014E0000DFEE06940F48000E061E06900F48000F6
:1014F000049006B010BD00000058004000100240EB
:10150000000C0140024881680278114481607047F4
:10151000EC000020074810B5016841F0100101609F
:10152000032000F075F80F2000F006F800F024F812
:10153000002010BD0020024070B50D4D04464FF450
:101540007A712878B1FBF0F00A490968B1FBF0F034
:1015500000F0CCFB48B9102C07D200222146501EC7
:1015600000F036F800206C6070BD012070BD0000F6
:10157000EC000020F80000200C4808B5816941F01B
:1015800001018161816901F001010091C16941F0AE
:101590008051C161C06900F08050009004484168EA
:1015A00021F0E06141F00071416008BD001002408F
:1015B00000000140002809DB00F01F0201219140DA
:1015C0004009800000F1E020C0F8001170470000E1
:1015D000F0B40E4B1B680C46C3F30223C3F107059E
:1015E000042D00D90425191D072901D2002300E08C
:1015F000DB1E012606FA05F1491E214099409E4056
:10160000761E16403143F0BC01F027BE0CED00E021
:10161000064900F0070208684FF6FF03184040EA49
:101620000220034A10430860704700000CED00E000
:101630000000FA0510B52CA401461DCC86B08DE83B
:101640001D002DA02D4C00680490002004292FD0EF
:101650000BDC01292FD0022928D100F071F9616833
:10166000C1F38131491C49001EE0082920D010290E
:101670001CD161682268D20118D5C1F38342C90325
:101680001DF8020009D5616804AAC1F34041515C0C
:101690001B4AB2FBF1F1484301E01A494843616833
:1016A000490203D440000321B0FBF1F006B010BDA5
:1016B00000F056F9FAE7226AC2F30121012903D1A9
:1016C000920701D5C803F1E7022905D1626A9207A2
:1016D00002D549F64040E9E70329E7D121688903AB
:1016E000E4D54FF22440E1E70203040506070809A8
:1016F0000A0B0C0D0E0F101001020000001002402A
:1017000000127A0000093D002DE9F84305460078F3
:10171000354CC00754D0E0690026C00008D4E06909
:1017200040F08050E061E069012600F080500090B8
:101730002E480168C90512D40168804641F48071C1
:101740000160FFF7E5FD074605E000BFFFF7E0FD9C
:10175000C01B642823D8D8F80000C005F6D5206A3D
:1017600010F4407021D0A98801F4407181421CD04E
:10177000206A1F49012220F440700A6000220A609A
:101780002062C00711D0FFF7C3FD074641F2883839
:1017900008E000BFFFF7BCFDC11B414502D9032093
:1017A000BDE8F883206A8007F4D5206A696820F4D0
:1017B0004070084320621EB1E06920F08050E06173
:1017C0002878800705D56068A96820F44040084360
:1017D00060602878C00605D56068696920F48000DB
:1017E000084360600020DBE700100240007000400A
:1017F000400442422DE9F0470F46050061D0434EB8
:10180000306800F00700B84209D2306820F00700C5
:1018100038433060306800F00700B84251D1286882
:101820003B4C810712D5400703D5606840F4E06067
:1018300060602878000703D5606840F460506060FD
:101840006068A96820F0F000084360602878C0074D
:1018500028D06868012810D02168022810D0890794
:1018600000292EDA616821F0030101436160FFF76E
:101870004FFD804641F288390DE021688903EFE78A
:101880008901EDE7FFF744FDA0EB0801494502D9C6
:101890000320BDE8F0876068696800F00C00B0EBD9
:1018A000810FEFD1306800F00700B8420BD93068E3
:1018B00020F0070038433060306800F00700B8427D
:1018C00001D00120E5E72878400705D56068E96880
:1018D00020F4E060084360602878000706D560685F
:1018E000296920F4605040EAC100606000F038F8D7
:1018F0006168084AC1F30311515CC8400649086099
:1019000006480068FFF718FE0020C2E700200240EA
:1019100000100240E64F0008F8000020F000002010
:101920000448054900684968044AC1F30221515C32
:10193000C8407047F800002000100240F64F000831
:101940000448054900684968044AC1F3C221515C52
:10195000C8407047F800002000100240F64F000811
:1019600012A185B00FC98DE80F0014A0144A0068B9
:1019700004905168134801F00C03042B10D0082B7D
:101980000ED1C1F38343C9031DF803000AD5516882
:1019900004AAC1F34041515C0A4A5043B0FBF1F044
:1019A00005B0704708494843FAE700000203040500
:1019B000060708090A0B0C0D0E0F1010010200009B
:1019C0000010024000127A0000093D002DE9F84F96
:1019D000040070D02078C04DC00749D06868C0F3BB
:1019E0008100012807D06868C0F38100022809D16E
:1019F0006868C00306D52868800339D56068002868
:101A0000E7D035E06068B0F5803F0BD010B1B0F59D
:101A1000A02F11D0286820F480302860286820F496
:101A2000802002E0286840F480302860606890B12F
:101A3000FFF76EFC06460AE0286840F48020286024
:101A4000F0E700BFFFF764FC801B642873D82868A8
:101A50008003F7D50CE0FFF75BFC064605E000BF0E
:101A6000FFF756FC801B6428F0D828688003F7D461
:101A700020789A4E80074FF001094FF0000839D5C1
:101A8000686810F00C0F07D06868C0F38100022866
:101A900009D16868C00306D42868800714D5206976
:101AA000012808D110E02069B0B1C6F80090FFF716
:101AB0002FFC074605E00AE1FFF72AFCC01B0228BD
:101AC000C4D828688007F7D52868616920F0F80035
:101AD00040EAC10028600DE0C6F80080FFF718FC5E
:101AE000074604E0FFF714FCC01B022823D828682F
:101AF0008007F7D4207800072CD57948A169D9B19F
:101B0000C0F80090FFF704FC074604E0FFF700FC74
:101B1000C01B02280FD8686A8007F7D571484FF4B8
:101B2000FA510068B0FBF1F0009000BF0098411E30
:101B30000091FAD20EE080E0C0F80080FFF7E8FBE9
:101B4000074604E0FFF7E4FBC01B022875D8686A6B
:101B50008007F7D42078400760D5E8690027C000E7
:101B600008D4E86940F08050E861E869012700F096
:101B7000805000905C480168C90513D40168834611
:101B800041F480710160FFF7C3FB824606E000BFAD
:101B9000FFF7BEFBA0EB0A0064284ED8DBF800007C
:101BA000C005F5D5E06801280AD008B1052813D092
:101BB000286A20F001002862286A20F0040002E070
:101BC000286A40F001002862E06841F2883B98B141
:101BD000FFF79EFB82460BE0286A40F00400286273
:101BE000EEE700BFFFF794FBA0EB0A0159455AD876
:101BF000286A8007F6D50CE0FFF78AFB824605E0ED
:101C0000FFF786FBA0EB0A0159454CD8286A8007EC
:101C1000F6D41FB1E86920F08050E861E06988B32C
:101C20006968C1F38101022944D00228C6F86080A6
:101C300004D0FFF76DFB044638E034E0FFF768FBA3
:101C4000074604E0FFF764FBC01B02282BD8286876
:101C50008001F7D4206AB0F5803F05D16868A1689B
:101C600020F4003008436860D4E90801084369683B
:101C700021F4741108436860C6F86090FFF748FBD0
:101C8000044606E025E000BFFFF742FB001B0228E8
:101C900009D828688001F7D51BE000BFFFF738FBA3
:101CA000001B022802D90320BDE8F88F28688001B4
:101CB000F4D40EE00128F7D06868226A00F480317D
:101CC000914204D1616A00F47010884201D0012071
:101CD000EAE70020E8E7000000100240000042426E
:101CE00080044242F80000200070004010B5401E01
:101CF000B0F1807F01D3012010BD4FF0E02460617E
:101D00000F21601701F0A9FA0020A06107202061CF
:101D1000002010BD7047704770B590F83C20012A34
:101D20002CD0012480F83C40022280F83D2003683A
:101D30005A689D6822F070060A6832435A60104B58
:101D400002689A420ED00F4B9A420BD0B2F1804FEC
:101D500008D00D4B9A4205D00C4B9A4202D00C4B46
:101D60009A4204D1496825F080031943916080F8B4
:101D70003D40002180F83C10084670BD022070BD37
:101D8000002C0140003401400004004000080040E5
:101D9000000C004010B5040003D094F83D0010B1D1
:101DA00007E0012010BD002084F83C00204600F030
:101DB0001FF8022084F83D00211D206801F078F80A
:101DC000012084F8460084F83E0084F83F0084F83F
:101DD000400084F8410084F8420084F8430084F80D
:101DE000440084F8450084F83D00002010BD000048
:101DF00008B50068B0F1804F12D10A48C16941F0BE
:101E00000101C161C069002200F00100009011468B
:101E10001C20FFF7DDFBBDE808401C20FFF7CABB14
:101E200008BD00000010024090F83D10012901D0CB
:101E300001207047022180F83D100168CA6842F015
:101E40000102CA6000680E4988420ED00D498842DE
:101E50000BD0B0F1804F08D00B49884205D00B4918
:101E6000884202D00A49884204D1816801F0070102
:101E7000062903D0016841F001010160002070478C
:101E8000002C0140003401400004004000080040E4
:101E9000000C00400168CA6822F00102CA600168B3
:101EA0000A6A41F211131A4207D10A6A9B101A42B8
:101EB00003D10A6822F001020A60012180F83D1076
:101EC0000020704770B5044690F83C00012817D0F8
:101ED000012584F83C50022084F83D002068826887
:101EE00022F0770222F47F4282600868502830D0C6
:101EF0000DDC20284DD005DC98B310283BD148E0FC
:101F0000022070BD302844D0402834D139E0602808
:101F100028D0702806D0B0F5805F2CD0B0F5005FD7
:101F200029D10AE0CB68D1E90121206801F006F847
:101F30002068816841F0770109E0CB68D1E901218F
:101F4000206800F0FBFF2068816841F480418160D7
:101F500011E0CA684968206801F002F85021206841
:101F600007E016E0CA684968206801F00AF86021B5
:101F7000206800F0EDFF84F83D50002084F83C001C
:101F800070BDCA684968206800F0EAFF40212068F7
:101F9000EFE7226801461046EBE7704770B504464C
:101FA000006801694FF00005C943890715D4C1686D
:101FB000C943890711D4E91E0161012020772068F7
:101FC00080698007204602D0FFF7E7FF04E000F0B9
:101FD00098F8204600F096F8257720680169C943F3
:101FE000490717D4C168C943490713D46FF00401E6
:101FF0000161022020772068806910F4407F20462C
:1020000002D0FFF7CAFF04E000F07BF8204600F0A2
:1020100079F8257720680169C943090716D4C16892
:10202000C943090712D46FF0080101610420207729
:102030002068C0698007204602D0FFF7AEFF04E0A9
:1020400000F05FF8204600F05DF825772068016910
:10205000C943C90617D4C168C943C90613D46FF070
:1020600010010161082020772068C06910F4407FCA
:10207000204602D0FFF791FF04E000F042F820462E
:1020800000F040F8257720680169C943C90708D1E5
:10209000C168C943C90704D1891E0161204600F007
:1020A00033F820680169C943090609D4C168C943E6
:1020B000090605D46FF0800101612046FFF72AFE72
:1020C00020680169C943490609D4C168C943490662
:1020D00005D46FF040010161204600F027F8206828
:1020E0000169C94389060BD4C168C943890607D46D
:1020F0006FF0200101612046BDE87040FFF70BBE84
:1021000070BD7047704700000068B0F1804F0AD181
:10211000054842F210728188491C89B2818091423F
:1021200001D900218180704700000020704770476E
:1021300070470000F8B5026804461068D16853691A
:1021400010F00F0F4FF0000554D003F0010601F41A
:10215000907737435FD0C20705D0CA0503D5226CFC
:1021600042F001022264420705D5DA0703D0226C4F
:1021700042F002022264820705D5DA0703D0226CFE
:1021800042F004022264020707D501F02002324324
:1021900003D0226C42F008022264226C002A35D05F
:1021A000800604D5880602D5204600F029FF206865
:1021B0004069216CC0F3801001F008010143204602
:1021C00025D000F005FF2068416949061BD541690B
:1021D00021F040014161A06BA8B158494163A06B57
:1021E000FEF75AFD002811D0A06B416B01B0BDE88D
:1021F000F040084783060ED58B060CD52046BDE877
:10220000F84000F0FDBE2046FFF792FFF8BDFFF753
:102210008FFF2564F8BD266B2023012E52D1C60600
:1022200050D5CE064ED510685068009050694006D3
:102230002AD5A16B086840680004000CEAD0A68D7E
:102240008642E7D9E0858869202818D0D06820F434
:102250008070D0602068416921F0010141612068EF
:10226000416921F04001416184F83E3025632068D6
:10227000C16821F01001C160A06BFEF7E9FCA08DE0
:10228000E18D401A81B219E0A08DE18D401A81B232
:10229000E08D0028BED00029BCD0D06820F490701A
:1022A000D0602068426922F00102426184F83E3029
:1022B00025632068C26822F01002C2602046FFF742
:1022C00036FFF8BD05062BD50D0629D594F83D003F
:1022D0002128F6D1A068B0F5805F01D12069B0B1A6
:1022E000206A411C2162216800784860E08C401E11
:1022F0000004000CE084E4D12068C16821F0800172
:10230000C1602068C16841F04001C160F8BD206A29
:102310000088C0F308005060206A801C2062E5E756
:102320004006F3D54806F1D5D168204621F040019A
:10233000D16084F83D3000F0FAF9F8BDC12F0008F3
:1023400070B5040004D094F83D00002510B106E0FB
:10235000012070BD84F83C50204600F023F8242072
:1023600084F83D002068C16821F40051C160204616
:1023700000F0A2FE2068016921F49041016120680B
:10238000416921F02A0141612068C16841F400518E
:10239000C1602564202084F83D0084F83E000020C0
:1023A00070BD0000F0B585B0002400940194029443
:1023B000039403687B487A4E0515022103227A4F65
:1023C000B34225D1C36943F40023C361C36903F455
:1023D00000230493836943F0100383618069CDE98E
:1023E000005100F01000CDE9032069463846FEF7A1
:1023F00085FE6800CDE90004694638460294FEF780
:102400007DFE002201213420FFF7E2F8342032E083
:10241000DFF898C1664E634531D1C36943F4801338
:10242000C361C36903F480130493836943F0100309
:102430008361836903F010030493836943F02003ED
:1024400083618069039200F020000490B014CDE90C
:10245000000169463846FEF751FE0420CDE900042C
:10246000694630460294FEF749FE002211463520A7
:10247000FFF7AEF83520FFF79DF805B0F0BDDFF8A7
:1024800034C14FF40077634525D1836943F4804319
:102490008361836903F480430493836943F00403F5
:1024A00083618069CDE9007100F00400CDE903206B
:1024B000414E69463046FEF721FECDE9005469469B
:1024C00030460294FEF71AFE002211462520FFF73F
:1024D0007FF82520CFE7DFF8E4C0394D63452CD1E4
:1024E000C36943F40033C361C36903F40033049345
:1024F000836943F0200383618069039200F0200028
:1025000004902020CDE9000169463046FEF7F6FD33
:102510004020CDE90004694630460294FEF7EEFD06
:10252000686840F0E06040F0080068600022022126
:102530002620FFF74DF826209DE7DFF888C0634589
:102540009BD1C36943F48023C361C36903F480232F
:102550000493836943F0200383618069039200F050
:10256000200004904FF48070CDE9000169463046A8
:10257000FEF7C4FDCDE90074694630460294FEF7CB
:10258000BDFD686820F0300040F0E06040F03000B1
:102590006860002211462720FFF71AF827206AE713
:1025A000004C00400010024000100140005000406C
:1025B0000014014000380140000801400044004080
:1025C000000001400048004090F83E30202B0ED122
:1025D00059B152B190F83C30012B08D0012380F85A
:1025E0003C300023036300F0C3BD0120704702208C
:1025F0007047000070B5044600681849184D8842BD
:1026000007D1687800F0A0FA0122691C1548FFF78D
:10261000DBFF15492068884205D1114901220C31A0
:102620001248FFF7D1FF12492068884215D1287857
:1026300060B910480168C0F80A104168C0F80E106F
:10264000018941820021016041600181BDE8704043
:10265000042208490848FFF7B7BF70BD004C00408E
:102660000000002060020020004400402C030020F5
:10267000004800400C010020700300202DE9F843C1
:10268000044690F83D001F4616460D4620284CD1C2
:10269000C5B1BEB194F83C00012846D0012084F8B1
:1026A0003C004FF00008C4F84080212084F83D0031
:1026B000FEF72EFEA6848146E684A068B0F5805F12
:1026C00003D004E00120BDE8F883206928B12E463C
:1026D0005FF0000584F83C800EE00026FAE78021D8
:1026E000204600F060FDA0B9AEB116F8010B2168DC
:1026F0004860E08C401EE084E08C4B464FF00002C6
:1027000000970028EBD14FF04001204600F04BFD30
:1027100030B10320D7E735F8020BC0F30800E6E735
:10272000202084F83D000020CDE70220CBE7704751
:10273000FEE7000038B504464FF6FF7509E000BF1C
:102740008DF800002B46012269460448FFF796FFEA
:10275000641C20780028F3D138BD00002C03002031
:1027600070B52148FEF714FA32211F48FEF772F9BE
:102770001D48FEF773F8800503D51B48FEF770F877
:102780000446204602F05EFA02F0B2F94FF06632DB
:10279000164B01F09DFE6FF00B0202F0DEFB01F024
:1027A000FDFB04460146124802F030FB02F0A0F99E
:1027B00006460D46204602F09BF90E4A0E4B01F0EC
:1027C00087FE32462B4601F0D7FC0C4A0C4B00F03A
:1027D000E3FE01F0E3FB0B490860BDE870404FF4F5
:1027E000FA70FEF753BC00005001002066660A40F4
:1027F0000000A040713D0AD7A370414004734B70A4
:1028000001FA0840080000203EB50024104800945A
:10281000019402940D4984600160047304750125DC
:1028200005614FF460214460C161FEF71DF808B1F5
:10283000FDF794FF0095CDE9015469460448FDF782
:102840008FFF002801D0FDF789FF3EBD0024014025
:10285000200100203EB50024114800940194029408
:102860000E498460016004730475012505614FF40D
:1028700060214460C161FDF7F7FF08B1FDF76EFF0D
:102880000520CDE90005694602940548FDF768FF7B
:10289000002801D0FDF762FF3EBD00000028014086
:1028A00050010020094808B5416941F0010141612A
:1028B0004069002200F00100009011460B20FEF755
:1028C00087FEBDE808400B20FEF774BE00100240F2
:1028D00030B585B0002427480094019402940394F5
:1028E000816941F040018161816901F040010491F9
:1028F000816941F004018161816901F00401049161
:10290000816941F008018161816901F00801049148
:10291000816941F020018161816901F02001049108
:10292000816941F0100181618069134D00F0100050
:102930000490012220212846FEF7E4FC102000909C
:102940000E48CDE9010469460D48FEF7D7FB20206B
:1029500001218DE81300039169462846FEF7CEFB5E
:10296000002211460A20FEF733FE0A20FEF722FE5F
:1029700005B030BD00100240000C014000002110E5
:10298000001801400D4810B50B4901600C49416029
:1029900000214FF480428160C0E9031241618161EE
:1029A000C1610162FEF7BAFC002803D0BDE8104007
:1029B000FDF7D4BE10BD000000580040C401002047
:1029C000A086010010B586B0002417480094019439
:1029D0000294039404944FF080410594016041F601
:1029E0001F41C0E9011442F20F71C0E90314846170
:1029F000FFF7D0F908B1FDF7B1FE4FF48050009019
:102A000069460948FFF75EFA08B1FDF7A7FE04948E
:102A100004A905480594FFF77FF9002801D0FDF7C8
:102A20009DFE06B010BD0000180200200C4810B535
:102A30000A4901604FF4E1314160002181600C22BC
:102A4000C160C0E904128161C161FFF779FC00280F
:102A500003D0BDE81040FDF781BE10BD004C004022
:102A6000600200200C4810B50A4901604FF416516D
:102A70004160002181600C22C160C0E904128161C3
:102A8000C161FFF75DFC002803D0BDE81040FDF7F1
:102A900065BE10BD00500040A40200200C4810B5D7
:102AA0000A4901604FF4E1314160002181600C224C
:102AB000C160C0E904128161C161FFF741FC0028D7
:102AC00003D0BDE81040FDF749BE10BD00380140FD
:102AD000E80200200C4810B50A4901604FF4E131CA
:102AE0004160002181600C22C160C0E90412816153
:102AF000C161FFF725FC002803D0BDE81040FDF7B9
:102B00002DBE10BD004400402C0300200C4810B521
:102B10000A4901604FF4E1314160002181600C22DB
:102B2000C160C0E904128161C161FFF709FC00289E
:102B300003D0BDE81040FDF711BE10BD00480040B5
:102B400070030020FEE7FEE72DE9F0413C4C3D4ECE
:102B50002146E7798A793C4D511CCBB2002137B12F
:102B6000012F13D0022F2DD0032F56D010E02C2888
:102B70000ED10120E0712C2025F81200A3713046FF
:102B8000BDE8F04101222021FEF7BCBB12280BD08A
:102B9000E171A1715FF0000025F81010401CC0B277
:102BA0000A28F9D3BDE8F081002220213046FEF743
:102BB000A9FB0220E071A079122125F81010401C19
:102BC000A071EFE725F81200A3710B2B01D25B284F
:102BD000E8D10320E07105EB430010F80C1D2170D3
:102BE000827862700279A2708279E270007A207134
:102BF00016A0FDF715FB617814A0FDF711FBA17875
:102C000012A0FDF70DFBE17812A0FDF709FB217979
:102C1000BDE8F04111A0FDF703BB05EB420030F821
:102C2000020C5B2809D0E171A171002025F8101079
:102C3000401CC0B20A28F9D3B4E7A171E171B1E731
:102C4000FC000020000C0140B403002025640D208E
:102C50002020000025640D092000000025640D0AD5
:102C60000000000070477047FEB50546FDF792FB77
:102C7000C4B200201AA18DF800000246D1E900017B
:102C8000CDE90101E01C8DF8060001A89DF8003097
:102C9000815C521C59408DF80010052AF6D30022A1
:102CA00006E0A85C9DF8001048408DF80000521C1A
:102CB000A242F6D34FF6FF763346052201A90A4811
:102CC000FFF7DCFC3346224629460748FFF7D6FCCF
:102CD0003346012269460448FFF7D0FCFEBD0000E0
:102CE000FD000D0100000000A402002010B54FF609
:102CF000FF742346012209490948FFF7BFFC234618
:102D0000012206490648FFF7B9FC2346BDE81040FA
:102D1000012202490248FFF7B1BC00000A0100206D
:102D20002C03002038B504464FF6FF7509E000BFBC
:102D30008DF800002B46012269460448FFF79EFCEF
:102D4000641C20780028F3D138BD0000E802002080
:102D500070B505460E461EA0FFF7E4FF4FF47A74E7
:102D60002046FEF793F91DA0FFF7DCFF2046FEF793
:102D70008DF920A0FFF7D6FF2046FEF787F92249FC
:102D80003046FDF7BFFC204A20A102F13000FDF7DC
:102D900053FA1D483030FFF7C5FF30211A48FDF7C0
:102DA00018FB194840213030FDF713FB2046FEF791
:102DB0006DF92846FFF7B6FF2046FEF767F9BDE834
:102DC00070404FF6FF73012214491548FFF756BCB7
:102DD00041542B434D47463D310D0A0041542B438E
:102DE000534D503D31372C3136372C302C380D0AAD
:102DF0000000000041542B435343533D225543539D
:102E000032220D0A00000000C803002041542B4369
:102E10004D47533D222573220D0A00000901002071
:102E2000E8020020FEF76EBB30B595B02821684659
:102E3000FDF7F1FA14210AA8FDF7EDFA18210FA801
:102E4000FDF7E9FA01210804CDE9001000250295FB
:102E500002240491CDE907404FF4E0100990684640
:102E6000FEF7B4FD08B172B6FEE70AA90F2081E8AB
:102E700031004FF48060CDE90D0502210AA8FEF76C
:102E8000B9FC08B172B6FEE74FF4004011900F9400
:102E90000FA8FEF739FC002801D072B6FEE715B086
:102EA00030BD70470148FFF779B8000018020020D4
:102EB000F0B502681C4B1D4D1D4E1E4F1E4C4FF0B1
:102EC000804C984209D0A04207D0604505D0A84266
:102ED00003D0B04201D0B84204D122F0700E4A684B
:102EE00042EA0E02984209D0A04207D0604505D0C0
:102EF000A84203D0B04201D0B84203D122F44075B9
:102F0000CA682A434D6922F080022A4302608A6817
:102F1000C2620A688262984201D0A04201D1096966
:102F2000016301214161F0BD002C0140000400401B
:102F300000080040000C00400034014010B58468D7
:102F400042EA032224F47F440A432243826010BDF4
:102F5000826822F070020A4342F0070181607047E4
:102F600010B5036A046A24F001040462846924F041
:102F7000F00444EA021423F00A020A438461026264
:102F800010BD10B5036A23F0100303628369046A5D
:102F900023F4704343EA023224F0A00343EA011110
:102FA0008261016210BD00000148FFF7C3B8000054
:102FB000600200200148FFF7BDB80000A402002015
:102FC00010B5406A0021C185C184FFF7B1F810BD7A
:102FD0000168CA6822F49072CA6001684A6922F0E6
:102FE00001024A61016B012904D10168CA6822F01B
:102FF0001002CA60202180F83E1000210163704752
:1030000008B590F83E10222901D0022008BD826840
:103010004FF480539A4201D1016921B1816A9A42E9
:103020001BD04AB10AE00268816A5268C2F3080202
:103030000A80816A891C08E0026972B102685268DC
:1030400002F07F020A70816A491C8162C18D491EAB
:103050000904090CC18503D019E002685268F1E740
:103060000168CA6822F02002CA600168CA6822F4B6
:103070008072CA6001684A6922F001024A61202117
:1030800080F83E10016B012903D0FFF7B3FA00204E
:1030900008BD002101630168CA6822F01002CA60FD
:1030A00001680A68D20602D50A6849680091818DD4
:1030B000FFF73DF8EBE7000070B5044600680169D2
:1030C000E26821F44051114301612169A06808437D
:1030D000616908432168CA6841F20C639A4302435C
:1030E000CA6020684169A26921F4407111434161BD
:1030F0001E492068884202D1FEF722FC01E0FEF75B
:103100000FFC00EBC00101EB00126068642180003D
:10311000B2FBF0F3B3FBF1F36FF018067343B2FBAD
:10312000F0F5B2FBF0F605EB8305322303EB051552
:10313000B5FBF1F5B6FBF1F605F0F00505EB06156C
:10314000B2FBF0F6B2FBF0F0B0FBF1F06FF018025A
:10315000504306EB800003EB0010B0FBF1F0216858
:1031600000F00F002844886070BD00000038014066
:1031700081628285C28500210164222280F83E207E
:1031800080F83C100168CA6842F48072CA60016825
:103190004A6942F001024A610068C16841F02001B9
:1031A000C160002070472DE9F041984617460E4651
:1031B0000446069D1DE0681C1BD02DB1FEF7A8F843
:1031C000A0EB0800A84214D92068C16821F4D0718E
:1031D000C1602068416921F001014161202084F82B
:1031E0003D0084F83E00002084F83C000320BDE848
:1031F000F0812068006836EA000004D00020B84260
:10320000D9D00020F3E70120F9E700000148FEF7DC
:1032100091BF0000E80200200148FEF78BBF0000CC
:103220002C0300200148FEF785BF0000700300203A
:10323000FEE7490050EAC12018BF04204A0D18BF1C
:1032400040F0010040F2FF72B2EB515F08BF40F066
:103250000200012808BF052070470907090E002851
:1032600004DB00F1E02080F80014704700F00F004C
:1032700000F1E02080F8141D70472DE9F0414F1E49
:1032800000EBC7010446D1E9000115461E4637F0A0
:1032900006020DD02A46334601F01AF97F1E04EBD0
:1032A000C703D3E9002300F0ABFE37F00602F1D1EB
:1032B000022F25D0042F13D0062F18BFBDE8F081B0
:1032C0002A46334601F004F9D4E90A2300F098FEB7
:1032D0002A46334601F0FCF8D4E9082300F090FEBA
:1032E0002A46334601F0F4F8D4E9062300F088FEBC
:1032F0002A46334601F0ECF8D4E9042300F080FEBE
:103300002A46334601F0E4F8D4E9022300F078FEBF
:103310002A46334601F0DCF8D4E90023BDE8F04149
:1033200000F06EBE002213461046014900F024BF93
:103330000000F03F00F064BE002213461046114624
:1033400000F01ABF40F2013200204FF0E04101F0DE
:1033500004BE0000024A0020110701F0FEBD00007B
:1033600001FDFFFF7047000013B54FF6FF73012208
:1033700069460248FFF782F900981CBDE802002068
:1033800086B0FEF7C7F8FFF74FFDFFF7A1FAFFF78A
:103390004DFBFFF767FBFFF785FAFFF735FAFFF7FD
:1033A0007DFBFFF797FBFFF755FAFFF7EBFAFFF707
:1033B00009FBFFF7ABFB012245494648FFF704F93B
:1033C000042245494548FFF7FFF8414901220B39DE
:1033D0004348FFF7F9F800252A4620214148FDF728
:1033E00091FFDFF8EC90DFF8F080DFF8FCA008F147
:1033F0000A080026A9F10C04FFF7B2F95146A068AB
:1034000001F038FC01F002FC024638A16846FCF7E6
:1034100013FF6846FFF78EF9FFF768FC1421684632
:10342000FCF7F9FF99F800004F4631281AD115B181
:10343000012D08D016E030A0FFF716FC3648FEF745
:10344000F3FC01250EE0A0880A280BD33248FEF7D2
:1034500021FD3E603E71A0780025012836D02FA0C6
:10346000FFF702FC98F8001040467729C4D1417854
:103470006129C1D181787229BED198F803006E28E4
:10348000BAD14FF6FF773B4601222CA11448FFF733
:10349000F5F80120207010483B46012240F80A6FE1
:1034A00026A1466006810E48FFF7E8F824A0FFF742
:1034B000DBFB07482CA1401DFFF74AFC3B460122DD
:1034C0002CA10748FFF7DAF8267095E72AA0C7E78E
:1034D0000C0000202C0300200C01002070030020B1
:1034E00060020020000C01400000204178302E7660
:1034F000616C3D25640000005B76365D5B74355D74
:10350000C7EBD4DACEE5C3EBC4DABDF8D0D0BEC683
:10351000BEABBCECB2E20000180200205B76365D68
:103520005B74355DBCECB2E2CDEAB1CFA3ACD7A3FE
:10353000C4FAD2BBC2B7CBB3B7E70000310000007A
:103540005B76365D5B74355DBCECB2E2B5BDCEA397
:10355000CFD5BCDDCABBD0D0CEAAA3ACC7EBB0B22E
:10356000C8ABBCDDCABB0000313330323230343539
:1035700034323700300000005B76365D5B74355DB9
:10358000C4FAD2D1BAC8BEC6A3ACC7EBCEF0BEC691
:10359000BAF3BFAAB3B500002DE9F04D16460F46A9
:1035A00094B01C4621F0004123F00042002814BFD3
:1035B0004FF0010C4FF0000C0CEB470CFE4B0CEBEA
:1035C00003054FEA630C65452BD3350018BF012571
:1035D00005EB44051D44F94B9D4222D3F84B52EABA
:1035E000060C02D09F4205D148B914B000201946FC
:1035F000BDE8F08D002808BF4FF0000C01D04FF05F
:10360000010C0CEB470313F5001F0AD8002E14BF62
:103610004FF0010C4FF0000C0CEB440313F5001FAE
:1036200007D914B0324623463946BDE8F04DFFF7BE
:1036300081BEDFF890834FF0000A002FB8BF4245EB
:1036400023DAE14B9A42A8BF4FF0020A1DDADC4BA5
:1036500093421ADCDD4B03EB2253142B08DDC3F13C
:10366000340C26FA0CF303FA0CFCB4450DD108E037
:103670005EB9C3F1140C22FA0CF303FA0CFC944566
:1036800003D103F00103C3F1020A51EA00031BD185
:10369000002C19DA002F18BFBAF1020F02D0BAF1CC
:1036A000010F07D00220FCF7E6FE14B0BDE8F04D94
:1036B000FFF738BE0220FCF7DEFEFFF733FE14B042
:1036C00081F00041BDE8F08D330070D1424525D135
:1036D00007F1804212F5801201BF00280020B8498E
:1036E00014B008BFBDE8F08DB548884207DC002C57
:1036F000A1BF1846214614B0BDE8F08D07E0002CAC
:10370000BFBF184684F0004114B0BDE8F08DB04949
:103710007944D1E9000114B0BDE8F08DDFF8A0C212
:1037200062452AD1002C24DA39B1414517D100284D
:1037300004BF002002461CD106E040B10220FCF785
:103740009AFEFFF7FFFD0A46394600F0D7BA9D4AB8
:10375000394614B0002062F31E01BDE8F08D08DA8E
:1037600014B03B46BDE8F04D02460020614600F033
:1037700003BD14B03946BDE8F08D414517DAB4F108
:10378000804F0CD0A4F10053B3F1FF530FD13B1E77
:103790000DDB14B01946BDE8F04D00F0D9BB3B4637
:1037A00014B00246BDE8F04D194600F091BE050088
:1037B00027F000433AD1E1B1414537D1002F06DD72
:1037C000002CA1BF0020414614B0BDE8F08D002FB1
:1037D00001DD002C1FDB002F16DA002C14DBBAF100
:1037E000010F4FF0000014BF76497A4914B0BDE8CC
:1037F000F08DBAF1020F18BF002F0CD0BAF1010FF3
:1038000009D1002F07DA0BE0002FB8BF002C0DDA2A
:10381000BAF1010F04D0002014B00146BDE8F08DCC
:1038200014B000204FF00041BDE8F08D4FF00108CA
:1038300008EBE77CCDF814C05CEA0A0C0DD0DFF889
:1038400098C162457EDDDFF894C1654B624512DDAB
:103850008B420ADB002C18DB23E00120FCF70BFE77
:1038600014B0BDE8F04DFFF767BD554A8A4202DC4F
:10387000002C0ADC15E0994202DA002C11DA04E08F
:103880004F4B994219DD002C0BDD0220FCF7F3FDB4
:10389000FFF758FD4B4A14B061F31E021146BDE814
:1038A000F08D0220FCF7E7FDFFF754FD444A14B009
:1038B00061F31E021146BDE8F08D0022394601F089
:1038C0002DF807460D466FF0010201F046FB4FF060
:1038D0005532444B00F030FF3A462B4600F0F8FDDD
:1038E0000022414B00F028FF80468B463A462B468B
:1038F0001046194600F0ECFD42465B4600F0E8FD3C
:1039000088460E904FF0C042384B3846294600F0AA
:10391000DFFD83460091364A344B41460E9800F055
:10392000D7FD80460191334A334B3846294600F093
:10393000CFFD4246019B00F0F1FF0D4602460B46CB
:103940000C9000E011E05846009900F059FB002768
:1039500088465A463846009B00F0E0FF2B460C9AFA
:1039600000F0EAFE024600F079B90020B1F5801FB0
:1039700007DA35222846194601F0EFFA05466FF0BE
:10398000340000EB2150A0F2FF300190C1F313008E
:1039900040F07F6141F04051029118498842D8BF00
:1039A0004FF0000B35DD16498142C8BF4FF0010BC7
:1039B0002FDC4FF0000B25E0FFFF1F00FFFF0F0083
:1039C0000000F03F0000F07F0000404301FCFFFFDB
:1039D000741900000000F0FF0000E0410000F04317
:1039E000FFFFEF3F5555D53F0000E03F4715F73F3C
:1039F000FE822B6544DF5DF80BAE543E8E980300CB
:103A00007AB60B000198401C01900298A0F5801036
:103A10000290FF480299784400EBCB000991D0E96D
:103A2000002328460B93129200F078FF00910A9031
:103A300028460B9B129A099900F0E2FA02460B46BF
:103A40000020F44900F098FBCDE90C010B4602463A
:103A500000990A9800F03CFD0690EF488846002740
:103A600078440299006810904FF0005040EA6100DD
:103A700000EB8B4000F5002102910B9B129A1098ED
:103A800000F04CFF2A46099B00F056FE3A4643469A
:103A900000F01EFD0891129038464146029B109A94
:103AA00000F016FD009B0A9A00F046FE089B129A51
:103AB00000F034FFDDE90C2300F00AFD0B91069ABB
:103AC000129043461046194600F002FD0546024694
:103AD000D2480B460A9106217844FFF7CEFB0A9B99
:103AE0002A46089102901046194600F0F1FC089B06
:103AF000029A00F0EDFC0546099143463846194606
:103B0000069A00F07DFA0B9B129A00F0E1FC2A461F
:103B1000099B00F075FACDE908013A464346104684
:103B2000194600F0D5FC0A910022BD4B009000F030
:103B300067FADDE9082300F063FA0D463A46B84B10
:103B4000384600F0EBFE0A9B009A00F0E7FEDDE944
:103B5000082300F0F1FDCDE908013A462B46104656
:103B6000414600F0B5FC00910A90DDE908014346AA
:103B7000069A00F0ADFC069088462B463A460B9913
:103B8000129800F0A5FC4346069A00F039FA8046E8
:103B90000B4602460D9100990A9800F031FA002078
:103BA0000F460546009B0A9A00F0B8FE42460D9B60
:103BB00000F0C2FD88460E904FF06042994B2846B7
:103BC000394600F085FC02910090974A954B41469A
:103BD0000E9800F07DFC80460391944A944B284651
:103BE000394600F075FC4246039B00F009FA914A01
:103BF0007A4402EBCB03D3E9002300F001FA054637
:103C00000791019800F010FC0C9003912A46079B45
:103C10000299009800F0F4F9874A7A4402EBCB034A
:103C2000D3E900239346019300F0EAF9039B0C9A31
:103C300000F0E6F9002788463846039B0C9A00F00E
:103C40006DFE5A46019B00F069FE029B009A00F04F
:103C500065FE2A46079B00F06FFD02460020069095
:103C600005986C4DAAF10103184301D1734D0690DC
:103C700000200B4604903046214600F029FC824685
:103C80008B46234630461946049A00F047FE3A46D2
:103C9000434600F01DFC52465B4600F0B1F9064673
:103CA0008A463A4643462146049800F011FC0446F1
:103CB0000F463246534600F0A3F9614A8B469142C3
:103CC00021DBABEB020353EA000210D122463B4654
:103CD00000F024FE804603915A4A5B4B3046514621
:103CE00000F08EF94246039B00F0F0FC27D2022040
:103CF000FCF7C1FBFFF726FB0A46294614B062F326
:103D00001E01BDE8F08D514B2BF000429A4216D3B4
:103D10004F4A0BEB020353EA000208D122463B460E
:103D200000F0FCFD3246534600F0D0FC07D80220DC
:103D3000FCF7A1FBFFF70EFB0A462946DEE72BF056
:103D400000404449444A01EB20514FF000088242B0
:103D500023DA481C4FF4801121FA00F058443F4AFE
:103D6000C0F30A517A443E4BA1F2FF31CB4020EA26
:103D70000303C0F3130040F4801CC1F11400126867
:103D80002CFA00F8BBF1000FB8BFC8F100082046BC
:103D9000394600F0C3FD04460F4622463B463046F6
:103DA000514600F02DF94FF0000B5A462D4B584666
:103DB000039100F08DFB00910A902B4A2B4B584643
:103DC000039900F085FB0491029022463B46584639
:103DD000039900F0A3FD3246534600F0ADFC244A9F
:103DE000244B00F075FB049B029A00F009F907468A
:103DF0008A46009B0A9A00F003F904460E46009B8F
:103E00000A9A00F08BFD3A46534600F095FC33E0E9
:103E1000E61500000000F03F2416000054150000D5
:103E20000000084009C7EE3FFD033ADCF5015B14D2
:103E3000E02F3EBE2C140000F21300000000F0BF83
:103E400000009040FE822B654715973C00CC9040C7
:103E500000346F3F01FCFFFF0000E03F2013000033
:103E6000FFFF0F00432EE63F396CA80C615C20BEBB
:103E7000EF39FAFE422EE63F0746224633460F91BF
:103E80001046194600F024FB834602462E488A4617
:103E90000B4605217844FFF7F0F95A46534600F0E7
:103EA00017FB2246334600F047FC82468B463A46D3
:103EB000204631460F9B00F00BFB3A460F9B00F06B
:103EC0009FF80F460A9000224FF080435046594613
:103ED00000F024FD0391009052465B462046314697
:103EE00000F0F6FA039B009A00F046F93B460A9A66
:103EF00000F014FD2246334600F010FD0022134B63
:103F000000F01AFC0E46044601EB08510815002883
:103F100010DC42462046314601F01FF8FFF789F9D0
:103F2000042808BFFFF716FA42462046314601F042
:103F300014F8044606980B4614B022462946BDE8FC
:103F4000F04D00F0C5BA0000C81100000000F03FBD
:103F50002DE9F04106460F4600F0FAFB04000D463D
:103F600018BF0120284320F00040C0F17F6000F11D
:103F7000E040C00F0ED0301C18BF0120384320F0A5
:103F80000040C0F17F6000F1E040C00F04BF01209D
:103F9000FCF771FA20462946BDE8F08121F0004285
:103FA000A2F16052B2F5801F01F0004328BFD2F1A8
:103FB0007F6C0BD95FEA001C43EAC20242EB5070EF
:103FC00018BF704728BF20F001007047B2F5801F6E
:103FD000BCBF184670474FEA410C1CF5001F02D2C7
:103FE000084600F00EBF70B500F01CFB0000008911
:103FF000FFF7F6BF4FF00040A0F5800070470000CB
:1040000010B591EA030F48BF83F0004300F18E849E
:10401000841A71EB030C05D2121943EB0C03001B3D
:1040200061EB0C01DFF824E14FEA1154A4EB135CBF
:104030001EEA430F18BF9EEA445F73D023EA0E03C3
:10404000DCF1200E21EA045143F4801332D322FA2A
:104050000CFE10EB0E0023FA0CFE41EB0E01CCF12E
:10406000200E03FA0EFE10EB0E0051F10001B1F527
:10407000801FCCF1200E32D201EB045112FA0EF265
:10408000BDE8104058BF7047401C38BF5FEA42028D
:1040900018BF7047002814BF20F0010041F1000153
:1040A0004FEA410313F5001F38BF7047A1F1C0412B
:1040B00000F006BB012A43EB0302ACF1200CDCF15B
:1040C0001F0E32BF4FF0000E23FA0CF310EB03006B
:1040D00041EB0451B4EB115FD0D0A1EB045101F5D9
:1040E000801149085FEA300001EB04510ED350F112
:1040F000000038BF12FA0EFE08D1BDE81040C9E733
:10410000401C38BF5FEA4202CAD1C3E7BDE8104095
:104110004FEA410313F5001F38BF7047A1F1C041BA
:1041200000F0CEBA9EEA445F08D011EA5E0FBDE807
:10413000104004BF01F0004100207047BDE810406E
:1041400070B500F06FFA00BF64FBBE3E0000E0FFF8
:1041500002494FF0000000F0CEBE00BF0000F87F23
:10416000491058BFC1F140415B1058BFC3F14043F3
:104170008B42EFF3008070472DE9C04130B4DFF887
:10418000A0C23CEA111418BF3CEA131400F0EC8002
:1041900081EA03051CEA111444EAD57418BF1CEA2D
:1041A000131500F0C780A4EB05044FF0004545EA65
:1041B000C12145EAC32341EA505143EA525304F175
:1041C0007F74994204F500344FEAC0204FEAC222BE
:1041D00008BF904200F09C804FEA13650FF2401632
:1041E000765D4FEA134506FB05F7C7F1807706FBBE
:1041F00007F74FEAD737A7FB03687642C8F5803840
:10420000A7FB06CE38BFA8F1010807FB08E64FF070
:10421000000EA6FB028CE6FB03CEDCF1000CCEF117
:10422000004E38BFAEF1010EA6FB0C584FF0000750
:104230004FF00005E6FB0E87A1FB08C6A0FB07CEEA
:1042400016EB0E0645F10005E1FB076515F1E04EA2
:104250007EBFA4F580345FEA46066D4116F1800703
:1042600045F100054FEA17274FEA066647EA05675A
:10427000A6F1DE46B6F1805F4FEA15251FD9384614
:1042800024F0010C05EBC471BCF1FE6F01EB0C11C5
:1042900002D8F0BCBDE8008124425CBF01F5801E5D
:1042A0009EEAC47F02D4F0BCBDE80081244238D429
:1042B000F0BCA1F1C041BDE8004100F001BA4FEAF5
:1042C000D22242EA43524FEAD323A7FB02864FEAA7
:1042D000D02040EA415007FB03661EEA0E0F4FEA6A
:1042E000D12105FB026658BFA6EB0056B6EB00567F
:1042F0004FEA520E4EEAC37E18EB0E0E56EB530EEB
:10430000BDD518EB02085E417F1C55F10005B6E7EC
:104310004FF480154FF000074FF000064FF00008F3
:10432000ADE7F0BC4FF0000001F1C04101F00041E9
:10433000BDE8008111EA0C1F0CEA131500D00CE057
:1043400013EA0C1F00F025804FF00000F0BC81EA5A
:10435000030101F00041BDE80081F0BCBDE800416F
:1043600081EA030100F0ACB9F0BCBDE8004170B5D2
:1043700000F058F9097EFC3E00F007B881EA03011D
:104380004FF0000001F00041704781EA030100F0A6
:1043900097B9F0BCBDE800414FF0000021497047DB
:1043A000FFFDFBF9F7F5F4F2F0EEEDEBE9E8E6E4FA
:1043B000E3E1E0DEDDDBDAD8D7D5D4D3D1D0CFCD81
:1043C000CCCBCAC8C7C6C5C4C2C1C0BFBEBDBCBBBA
:1043D000BAB9B8B7B6B5B4B3B2B1B0AFAEADACABB5
:1043E000AAA9A8A8A7A6A5A4A3A3A2A1A09F9F9E8F
:1043F0009D9C9C9B9A999998979796959594939341
:10440000929191908F8F8E8E8D8C8C8B8B8A8989D7
:10441000888887878685858484838382828181805A
:104420000000FF070000F87F10F0004248BF404244
:10443000B0FA80F310FA03F10AD0C3F11D0303F5BB
:1044400080634FEA415002EB035202EBD1217047E7
:104450004FF000007047000051EA030C17D41CF520
:10446000801F58BFBCF5801F00F10680994218BF1D
:10447000704708BF9042704707D711F5801F58BF9B
:1044800013F5801F19D499427047894270471CF573
:10449000801F08D5BCF5801FF7D58B4218BF704729
:1044A00008BF824270474FF4001C1CEB410F38BF1D
:1044B0001CEB430F01D28B42704770B500F0B2F88D
:1044C000922449004FF000514FF08053FFF748BE4F
:1044D000DFF848C170B51CEA111E1EBF1CEA131597
:1044E0009EEA0C0F95EA0C0F00F06F8081EA03043E
:1044F00023EA4C134EEAD47E21EA4C1141F4801198
:1045000043F48013AE44A1FB024CA0FB0365AEF163
:104510007F7E361955EB0C05A1FB034C4CF10003D3
:10452000A0FB021C16EB0C06654153F10003094287
:1045300018BF46F0010613F4007F0BD14FEA033198
:104540004FEA0530340341EA155140EA16506FF046
:1045500003020AE04FEAC3214FEAC520F40241EA10
:10456000555140EA56506FF0020202EB2E4201EB29
:10457000025585EACE710AD05FEA440C18BF24F0D8
:10458000004450F1000041F1000120EAD47040F2F3
:10459000FE7C624500D270BDA84214BF4FF080443B
:1045A0004FF04044002E08BF0024BEF1806FA8BF2A
:1045B000A1F1C041BDE8704080F282804FF0000060
:1045C00001F1C04101F0004170479EEA0C0F0CEA76
:1045D000131518BF95EA0C0F06D04FF0000081EAC2
:1045E000030E0EF0004170BD00F01CF88900013E82
:1045F00000F007B800F009B84FEA430C5FEA5C5CD2
:1046000008D081EA030100F05BB84FEA410C5FEA91
:104610005C5CF6D14FF00000014970470000FF07D5
:104620000000F87F0EF1020E2EF0030E5EF8046B10
:10463000364205D4012A43EB030515F5001F12D8B5
:10464000012841EB010C1CF5001F0CD80ED14FEADC
:10465000D17C15F5001F0CEB4C0C0CF1020C08BFC3
:104660004CEBD37C04E04FF0080C01E04FEAD37C24
:104670000CEB4C0526FA05F606F00706B6F1040C1D
:1046800006D20EEB860CBDE870404CF0010C604782
:10469000DFE80CF0090B02024FF000414FF0000080
:1046A000A1F5002170BD19461046012851EB010407
:1046B00018BFD4F5001484BF002001F0004170BD84
:1046C0000808A0F500114FEA3101704753EA010CC8
:1046D00017D41CF5801F58BFBCF5801F00F1068061
:1046E0008B4218BF704708BF8242704707D713F547
:1046F000801F58BF11F5801F19D48B4270479B4211
:1047000070471CF5801F08D5BCF5801FF7D599426E
:1047100018BF704708BF904270474FF4001C1CEB55
:10472000430F38BF1CEB410F01D2994270470FB4C1
:104730000CBC03BCFFF7C1BE91EA030F10B581F0BA
:1047400000413FF565AC83F0004300F0EFB8000096
:104750002DE9F04101F5801CBCF5001FC0F2C380BB
:104760004FEA115C21EA0C510CF1FD0C41F480116F
:104770005FEA5C0C0CF5C07C01D3400049413DA4CC
:10478000890241EA905187028E0E0A0CA45D04FB57
:1047900004F602FB06F6C6F14046A4FB0662F60DDF
:1047A00046EA422606FB06F4A4FB01235242C3F16B
:1047B000404338BF5B1EA6FB02420024E6FB0324F5
:1047C000D20B42EA4446A6FB0623A1FB02E2A3FB6E
:1047D00007E4A4184FF0000252F10002E3FB01428B
:1047E0006442C2F1404E38BFAEF1010EA6FB042375
:1047F0004FF00002E6FB0E32A2FB03464FF000042E
:10480000B61954F10004E2FB0264A1FB06E6A4FB26
:1048100007E816EB08064FF0000858F10008E4FB23
:1048200001687642C8F1405838BFA8F10108A2FBE0
:1048300006E4A3FB08E52D194FF0000454F1000431
:10484000E2FB0854A1FB05E6A7FB04E818EB060809
:104850004FF0000656F10006E1FB048618F1200532
:1048600056F10006A809A8F11B08B10908F03F0895
:10487000B8F10A0F40EA86601CD901EB0C51BDE883
:10488000F08100BFFCF5EEE8E2DDD8D3CFCBC7C3A3
:10489000C0BDB9B6B4B1AEACA9A7A5A3A19F9D9B5D
:1048A0009A9896959392908F8D8C8B898887868520
:1048B00084838281A0FB006800FB01F208EB4208C0
:1048C000B8EB872807D5341858EB0104D5D5401C20
:1048D00051F10001D1E7341A78EB0104CDD4401E28
:1048E00071F10001C9E75FEA4C0C5FEA9C5C0DD1F5
:1048F00005D34FF0000001F00041BDE8F081BDE8B4
:10490000F04170B5FFF78EFE6DDBFFBEBDE8F041F4
:104910004FF00000004970470000F87F10B591EAA1
:10492000030F48BF83F000433FF572AB841A71EB6D
:10493000030C07D212198CF0004C43EB0C03001B44
:1049400061EB0C01DFF8A4E14FEA1154A4EB135C16
:104950001EEA430F18BF9EEA445F00F0B08023EACE
:104960006E03524221EA0451C3EB6E0338BF5B1E53
:10497000DCF1200E25D322FA0CFE10EB0E0043FAD8
:104980000CFE41EB0E01CCF1200E03FA0EFE10EBF3
:104990000E0051F10001CCF1200E29D412FA0EF2D2
:1049A00001EB0451BDE8104058BF7047401C1CBFCC
:1049B000B2F1004F704700280CBF491C20F00100E5
:1049C000704712EB020E43EB030218BF4FF0010ECB
:1049D0004EEA4202ACF1200CDCF11E0E54D943FA2F
:1049E0000CFE10EB0E0051F1FF31CCF11E0ED5D5AF
:1049F0000EF1010E12FA0EFE404141EB010101EBF6
:104A0000445C5FEA5C5C10D910EBDE7001EB045192
:104A100038BFBEF1004FBDE8104018BF70470028F6
:104A20000CBF491C20F00100704730D24FEAD42C53
:104A300011F5001124F400641BD0B1FA81F20B3A95
:104A4000A41AA41ED2F12003914030FA03F31943B3
:104A5000904001EBCC71002C01EB0451BDE81040FB
:104A6000A8BF704701F1C0414FF0000001F00041C4
:104A70007047B0FA80F310FA03F100D110BDE41AC8
:104A8000173C4805C90AE4E701EB045110BD491081
:104A900001EB0451BDE810404FEA300002E04FF056
:104AA000000170474A0008BF0042F8D0B2F5001F6D
:104AB00028BF704701F000414FF0000070479EEAA8
:104AC000445F07D011EA5E0FBDE8104004BF00212B
:104AD00000207047BDE8104070B5FFF7A3FD00BF90
:104AE00040DFF63E83F00041104670470000E0FFD3
:104AF00043004FEAD30C4FEA3C0C43401FBF400732
:104B00000CF1605113F0FE4F70471CF0006F03D1A1
:104B100000200CF0004170470CF0004343EA507055
:104B200010B540EACC0000F026F900BF000000926A
:104B30004FEA0001FFF7C4BD4FF000414FF0000005
:104B4000A1F500217047000090EA010F48BF81F0F5
:104B5000004100F16281421A3CBF801A89184FEA75
:104B6000D0524FF07F4C1CEA410FA2EBD15318BF3B
:104B70009CEA026F00F03B804FF0004C4CEA0020B2
:104B80004CEA012121FA03FC10EB0C0C1ED202F1BD
:104B9000FF325FEA1C2040EBC25038BF70471CF068
:104BA0007F0F4FEA400C18BFBCF17F4F38BF7047F2
:104BB000C3F12003994008BF20F00100BCF17F4FF2
:104BC00038BF7047A0F1C04000F01BB94FEA3C006D
:104BD000000A40EBC25028BF1CF0FF0F4FEA400C08
:104BE000E6D018BFBCF17F4F38BF7047EAE79CEAB8
:104BF000026F05D010EA5C0F08BF00F0004070475C
:104C000010B500F0B8F800BF64FBBE3E41000B0ECB
:104C1000D3F19E0208D950F400034FEA032323FA8C
:104C200002F048BF4042704710B500F0A4F800BF42
:104C300049922480002070476FF0004282EA2000F1
:104C40007047000010F0004148BF4042B0FA80F3C6
:104C500010FA03F2C3F19D030BD051EAC35101EBEB
:104C60001220530638BF704700F1010008BF20F042
:104C7000010070474FF47F0C1CEAD0121EBF1CEAE3
:104C8000D11392EA0C0F93EA0C0F00F0478090EAE0
:104C9000010F48BF42F480724FF0004C4CEA0020F4
:104CA0004CEA012102EB0302A0FB0113A2F5000272
:104CB000002918BF43F001035B0028BF4FEA33030C
:104CC00042EB22425FEA132C4CEBC2502EBFBCEBEE
:104CD000436FB2F57C0F70474FEA036CBCF1004F95
:104CE00008BF20F00100B2F57C0F38BF70470BD52C
:104CF00082F0FF0212F5803FC8BF704700F1C0404C
:104D0000D8BF00F00040704700F5000C5FEA4C0C83
:104D100048BF7047B0F1C04000F073B890EA010F8F
:104D20000CEAD11348BF42F48072624538BF634534
:104D300004D280EA010000F00040704710B500F096
:104D40001AF800BF8900013E00F007B800F009B86A
:104D50005FEA410C5FEA1C6C08D080EA010000F0B9
:104D600050B85FEA400C5FEA1C6CF6D14FF000408F
:104D7000A0F5800070470EF1020E2EF0030E5EF8D3
:104D8000044B244204D44FEA4102B2F17F4F11D8C0
:104D90004FEA4003B3F17F4F0CD80ED14FEAD07CDD
:104DA000B2F17F4F0CEB4C0C0CF1020C08BF4CEB3A
:104DB000D17C04E04FF0080C01E04FEAD17C0CEB11
:104DC0004C0324FA03F404F00704B4F1040C06D2F3
:104DD0000EEB840CBDE810404CF0010C6047DFE89E
:104DE0000CF0070802024FF00040A0F5800010BD53
:104DF0000846420018BFD2F1807288BF00F0004020
:104E000010BDFF2141EAD050C005704790EA010F64
:104E100048BF81F000413FF59EAE421A04D882F0AF
:104E20000042A0EB020011444FEAD0524FF07F4CF9
:104E30001CEA410FA2EBD15318BF9CEA026F4AD083
:104E40004FF0004C4CEA00204CEA012121FA03FC0F
:104E5000B0EB0C0C0FD412F0FE0F36D05FEA4C0012
:104E60001DD5001240EBC25038BF70471CF03F0FF9
:104E700018BF70470BE0A2F101025FEA1C2040EB73
:104E8000C25038BF70471CF07F0F18BF7047C3F186
:104E90002003994014BF401E20F001007047800895
:104EA0004FEA122308BF7047B0FA80FCA2EB0C0255
:104EB000CCF1280C60FA0CF093EA122F04BF00EB3F
:104EC000C25070474FEAC3707047130A5FEADC10A4
:104ED00008BF7047F6E79CEA026F04D010EA5C0F47
:104EE00008BF0020704710B5FFF745FF40DFF63ED2
:104EF00081F0004070470CF00F03092B08BF082019
:104F000000F059800A2B0BD0082B18BF704708BF40
:104F10001CF0400F0AD04FF000004FF00001704726
:104F20001CF0400F18BF4FF0004070471CF0100FEE
:104F300008D020F0704300F07F4242EAD3014FEAEC
:104F40004370704700F0604021F07F4242EA000267
:104F500001F07F4040EA727070474FF0FF0C4CF454
:104F6000E06C1CEA11531CBF9CEA030C9445C2BFC1
:104F7000DA4201EB02517047002B0DD0BCF1000F5B
:104F80000FD0002A01F00041A4BF41F0E04141F000
:104F90007F614FF00000704701F000414FF00000CA
:104FA000704750EA01334FF09B0C18BF4CF0806CF7
:104FB0007FF4CEA870471CF4801F11D01CF4E02FA2
:104FC00003D06FEACC31490070474FF04050EFF307
:104FD000008222F0704242EA000282F300887047A9
:104FE0004FF00000704700000000000000000102C8
:104FF0000304060708090000000001020304000082
:10500000000000000000F03F000000000000F83F3A
:1050100000000000000000000000004003B8E23F74
:10502000000000000000000006D0CF43EBFD4C3E26
:10503000033333333333E33FFFAB6FDBB66DDB3F1B
:105040004D268F515555D53F01411DA96074D13F63
:1050500065DBC9934A86CD3FEF4E454A287ECA3F5D
:105060003E5555555555C53F93BDBE166CC166BFDF
:105070002CDE25AF6A56113FF16BD2C541BDBBBED8
:10508000D0A4BE726937663E000000000000000038
:10509000B0500008000000200C0100006C01000866
:1050A000BC5100080C0100208C0900008801000898
:1050B00000000000000000000000000000000000F0
:1050C00000333031303445303935334541354330A4
:1050D000463733324133303131344542323732335F
:1050E0003137363834373532383632333746463052
:1050F000433638433036443442353233303630412B
:10510000383736383439413745394137363838340D
:1051100043344533413542353835373238354238F6
:1051200039353136383938434539363639464630DF
:1051300043344533413445383636304138353438D8
:1051400043344544363445424137363834354537A3
:105150003837393846464630433842463736434575
:1051600038363130463445413439303141354238B2
:1051700039353136383330303237393544363041CD
:105180003834453030384445463545373335423874
:1051900039464630310D0A000000000001000000D1
:1051A00010000000000000000024F40000000000D7
:0C51B0000001000000000000001AFF00D9
:0400000508000131BD
:00000001FF
